{
  "contractName": "AccountManager",
  "abi": [
    {
      "constant": false,
      "inputs": [
        {
          "name": "_dateOfBirth",
          "type": "uint256"
        },
        {
          "name": "_targetBalance",
          "type": "uint256"
        }
      ],
      "name": "createRetirementAccount",
      "outputs": [
        {
          "name": "",
          "type": "address"
        }
      ],
      "payable": false,
      "stateMutability": "nonpayable",
      "type": "function"
    },
    {
      "constant": false,
      "inputs": [
        {
          "name": "_label",
          "type": "string"
        },
        {
          "name": "_targetBalance",
          "type": "uint256"
        },
        {
          "name": "_targetDate",
          "type": "uint256"
        }
      ],
      "name": "createSavingsAccount",
      "outputs": [
        {
          "name": "",
          "type": "address"
        }
      ],
      "payable": false,
      "stateMutability": "nonpayable",
      "type": "function"
    },
    {
      "constant": true,
      "inputs": [],
      "name": "getAllSavingAccounts",
      "outputs": [
        {
          "name": "",
          "type": "address[]"
        }
      ],
      "payable": false,
      "stateMutability": "view",
      "type": "function"
    },
    {
      "constant": true,
      "inputs": [
        {
          "name": "index",
          "type": "uint256"
        }
      ],
      "name": "getAccountInfo",
      "outputs": [
        {
          "name": "_addr",
          "type": "address"
        },
        {
          "name": "_index",
          "type": "uint256"
        },
        {
          "name": "_label",
          "type": "string"
        },
        {
          "name": "_currentBalance",
          "type": "uint256"
        },
        {
          "name": "_targetBalance",
          "type": "uint256"
        },
        {
          "name": "_targetDate",
          "type": "uint256"
        }
      ],
      "payable": false,
      "stateMutability": "view",
      "type": "function"
    },
    {
      "constant": false,
      "inputs": [
        {
          "name": "percentages",
          "type": "uint256[]"
        }
      ],
      "name": "proposeInvestment",
      "outputs": [
        {
          "name": "fireRewardAccountIndex",
          "type": "uint256"
        }
      ],
      "payable": false,
      "stateMutability": "nonpayable",
      "type": "function"
    },
    {
      "constant": false,
      "inputs": [
        {
          "name": "percentages",
          "type": "uint256[]"
        }
      ],
      "name": "invest",
      "outputs": [],
      "payable": true,
      "stateMutability": "payable",
      "type": "function"
    },
    {
      "constant": true,
      "inputs": [],
      "name": "getFireCount",
      "outputs": [
        {
          "name": "_fires",
          "type": "uint256"
        }
      ],
      "payable": false,
      "stateMutability": "view",
      "type": "function"
    }
  ],
  "bytecode": "0x6080604052326000806101000a81548173ffffffffffffffffffffffffffffffffffffffff021916908373ffffffffffffffffffffffffffffffffffffffff160217905550426001556000600455600060055534801561005e57600080fd5b50611fe18061006e6000396000f3fe608060405260043610610083576000357c0100000000000000000000000000000000000000000000000000000000900463ffffffff1680630fd3cd10146100885780633b561afc1461010d57806347e44c73146102105780635cfd7109146102c8578063d30e95fc14610334578063d50addc31461040d578063dec59a2b14610438575b600080fd5b34801561009457600080fd5b506100cb600480360360408110156100ab57600080fd5b810190808035906020019092919080359060200190929190505050610554565b604051808273ffffffffffffffffffffffffffffffffffffffff1673ffffffffffffffffffffffffffffffffffffffff16815260200191505060405180910390f35b34801561011957600080fd5b506101466004803603602081101561013057600080fd5b8101908080359060200190929190505050610607565b604051808773ffffffffffffffffffffffffffffffffffffffff1673ffffffffffffffffffffffffffffffffffffffff16815260200186815260200180602001858152602001848152602001838152602001828103825286818151815260200191508051906020019080838360005b838110156101d05780820151818401526020810190506101b5565b50505050905090810190601f1680156101fd5780820380516001836020036101000a031916815260200191505b5097505050505050505060405180910390f35b6102c66004803603602081101561022657600080fd5b810190808035906020019064010000000081111561024357600080fd5b82018360208201111561025557600080fd5b8035906020019184602083028401116401000000008311171561027757600080fd5b919080806020026020016040519081016040528093929190818152602001838360200280828437600081840152601f19601f8201169050808301925050505050505091929192905050506107cd565b005b3480156102d457600080fd5b506102dd610b51565b6040518080602001828103825283818151815260200191508051906020019060200280838360005b83811015610320578082015181840152602081019050610305565b505050509050019250505060405180910390f35b34801561034057600080fd5b506103f76004803603602081101561035757600080fd5b810190808035906020019064010000000081111561037457600080fd5b82018360208201111561038657600080fd5b803590602001918460208302840111640100000000831117156103a857600080fd5b919080806020026020016040519081016040528093929190818152602001838360200280828437600081840152601f19601f820116905080830192505050505050509192919290505050610ca5565b6040518082815260200191505060405180910390f35b34801561041957600080fd5b50610422610f39565b6040518082815260200191505060405180910390f35b34801561044457600080fd5b506105126004803603606081101561045b57600080fd5b810190808035906020019064010000000081111561047857600080fd5b82018360208201111561048a57600080fd5b803590602001918460018302840111640100000000831117156104ac57600080fd5b91908080601f016020809104026020016040519081016040528093929190818152602001838380828437600081840152601f19601f8201169050808301925050505050505091929192908035906020019092919080359060200190929190505050611009565b604051808273ffffffffffffffffffffffffffffffffffffffff1673ffffffffffffffffffffffffffffffffffffffff16815260200191505060405180910390f35b600080838361056161113c565b8083815260200182815260200192505050604051809103906000f08015801561058e573d6000803e3d6000fd5b509050600081905060028190806001815401808255809150509060018203906000526020600020016000909192909190916101000a81548173ffffffffffffffffffffffffffffffffffffffff021916908373ffffffffffffffffffffffffffffffffffffffff16021790555050819250505092915050565b600080606060008060008060028881548110151561062157fe5b9060005260206000200160009054906101000a900473ffffffffffffffffffffffffffffffffffffffff169050606060008060008473ffffffffffffffffffffffffffffffffffffffff16631b9e16ad6040518163ffffffff167c010000000000000000000000000000000000000000000000000000000002815260040160006040518083038186803b1580156106b757600080fd5b505afa1580156106cb573d6000803e3d6000fd5b505050506040513d6000823e3d601f19601f8201168201806040525060808110156106f557600080fd5b81019080805164010000000081111561070d57600080fd5b8281019050602081018481111561072357600080fd5b815185600182028301116401000000008211171561074057600080fd5b5050929190602001805190602001909291908051906020019092919080519060200190929190505050935093509350935060028c81548110151561078057fe5b9060005260206000200160009054906101000a900473ffffffffffffffffffffffffffffffffffffffff168c858585858595509a509a509a509a509a509a50505050505091939550919395565b60066005548154811015156107de57fe5b9060005260206000200154816005548151811015156107f957fe5b906020019060200201511015610a8c5760008090505b81518160ff161015610a8a576000600260055481548110151561082e57fe5b9060005260206000200160009054906101000a900473ffffffffffffffffffffffffffffffffffffffff169050606060008060008473ffffffffffffffffffffffffffffffffffffffff16631b9e16ad6040518163ffffffff167c010000000000000000000000000000000000000000000000000000000002815260040160006040518083038186803b1580156108c457600080fd5b505afa1580156108d8573d6000803e3d6000fd5b505050506040513d6000823e3d601f19601f82011682018060405250608081101561090257600080fd5b81019080805164010000000081111561091a57600080fd5b8281019050602081018481111561093057600080fd5b815185600182028301116401000000008211171561094d57600080fd5b5050929190602001805190602001909291908051906020019092919080519060200190929190505050935093509350935060405160200180807f7265746972656d656e7400000000000000000000000000000000000000000000815250600a01905060405160208183030381529060405280519060200120846040516020018082805190602001908083835b6020831015156109fe57805182526020820191506020810190506020830392506109d9565b6001836020036101000a03801982511681845116808217855250505050505090500191505060405160208183030381529060405280519060200120148015610a6057506000878760ff16815181101515610a5457fe5b90602001906020020151145b15610a78576007600081548092919060010191905055505b5050505050808060010191505061080f565b505b60008090505b8151811015610b4d57600281815481101515610aaa57fe5b9060005260206000200160009054906101000a900473ffffffffffffffffffffffffffffffffffffffff1673ffffffffffffffffffffffffffffffffffffffff166108fc8383815181101515610afc57fe5b90602001906020020151606434811515610b1257fe5b04029081150290604051600060405180830381858888f19350505050158015610b3f573d6000803e3d6000fd5b508080600101915050610a92565b5050565b6060328073ffffffffffffffffffffffffffffffffffffffff166000809054906101000a900473ffffffffffffffffffffffffffffffffffffffff1673ffffffffffffffffffffffffffffffffffffffff16141515610c18576040517f08c379a00000000000000000000000000000000000000000000000000000000081526004018080602001828103825260138152602001807f53656e64657220556e617574686f72697a65640000000000000000000000000081525060200191505060405180910390fd5b6002805480602002602001604051908101604052809291908181526020018280548015610c9a57602002820191906000526020600020905b8160009054906101000a900473ffffffffffffffffffffffffffffffffffffffff1673ffffffffffffffffffffffffffffffffffffffff1681526020019060010190808311610c50575b505050505091505090565b60008160069080519060200190610cbd92919061114c565b5060006005600454811515610cce57fe5b06141515610ce0576123299050610f34565b60056000815480929190600101919050555060006002600554815481101515610d0557fe5b9060005260206000200160009054906101000a900473ffffffffffffffffffffffffffffffffffffffff169050606060008060008473ffffffffffffffffffffffffffffffffffffffff16631b9e16ad6040518163ffffffff167c010000000000000000000000000000000000000000000000000000000002815260040160006040518083038186803b158015610d9b57600080fd5b505afa158015610daf573d6000803e3d6000fd5b505050506040513d6000823e3d601f19601f820116820180604052506080811015610dd957600080fd5b810190808051640100000000811115610df157600080fd5b82810190506020810184811115610e0757600080fd5b8151856001820283011164010000000082111715610e2457600080fd5b5050929190602001805190602001909291908051906020019092919080519060200190929190505050935093509350935060405160200180807f7265746972656d656e7400000000000000000000000000000000000000000000815250600a01905060405160208183030381529060405280519060200120846040516020018082805190602001908083835b602083101515610ed55780518252602082019150602081019050602083039250610eb0565b6001836020036101000a038019825116818451168082178552505050505050905001915050604051602081830303815290604052805190602001201415610f29576005600081548092919060010191905055505b600554955050505050505b919050565b6000328073ffffffffffffffffffffffffffffffffffffffff166000809054906101000a900473ffffffffffffffffffffffffffffffffffffffff1673ffffffffffffffffffffffffffffffffffffffff16141515611000576040517f08c379a00000000000000000000000000000000000000000000000000000000081526004018080602001828103825260138152602001807f53656e64657220556e617574686f72697a65640000000000000000000000000081525060200191505060405180910390fd5b60075491505090565b600080848484611017611199565b8080602001848152602001838152602001828103825285818151815260200191508051906020019080838360005b83811015611060578082015181840152602081019050611045565b50505050905090810190601f16801561108d5780820380516001836020036101000a031916815260200191505b50945050505050604051809103906000f0801580156110b0573d6000803e3d6000fd5b509050600081905060028190806001815401808255809150509060018203906000526020600020016000909192909190916101000a81548173ffffffffffffffffffffffffffffffffffffffff021916908373ffffffffffffffffffffffffffffffffffffffff1602179055505060036000815480929190600101919050555081925050509392505050565b604051610680806111cf83390190565b828054828255906000526020600020908101928215611188579160200282015b8281111561118757825182559160200191906001019061116c565b5b50905061119591906111a9565b5090565b6040516107678061184f83390190565b6111cb91905b808211156111c75760008160009055506001016111af565b5090565b9056fe6080604052326000806101000a81548173ffffffffffffffffffffffffffffffffffffffff021916908373ffffffffffffffffffffffffffffffffffffffff160217905550426001556301e1855860055534801561005c57600080fd5b506040516040806106808339810180604052604081101561007c57600080fd5b8101908080519060200190929190805190602001909291905050506040805190810160405280600a81526020017f7265746972656d656e740000000000000000000000000000000000000000000081525081836005540182600290805190602001906100e9929190610102565b50816003819055508060048190555050505050506101a7565b828054600181600116156101000203166002900490600052602060002090601f016020900481019282601f1061014357805160ff1916838001178555610171565b82800160010185558215610171579182015b82811115610170578251825591602001919060010190610155565b5b50905061017e9190610182565b5090565b6101a491905b808211156101a0576000816000905550600101610188565b5090565b90565b6104ca806101b66000396000f3fe608060405260043610610062576000357c0100000000000000000000000000000000000000000000000000000000900463ffffffff16806312065fe0146100675780631b9e16ad14610092578063b78ba7c814610137578063e8b5e51f1461014e575b600080fd5b34801561007357600080fd5b5061007c610158565b6040518082815260200191505060405180910390f35b34801561009e57600080fd5b506100a7610177565b6040518080602001858152602001848152602001838152602001828103825286818151815260200191508051906020019080838360005b838110156100f95780820151818401526020810190506100de565b50505050905090810190601f1680156101265780820380516001836020036101000a031916815260200191505b509550505050505060405180910390f35b34801561014357600080fd5b5061014c61030e565b005b6101566103d6565b005b60003073ffffffffffffffffffffffffffffffffffffffff1631905090565b60606000806000328073ffffffffffffffffffffffffffffffffffffffff166000809054906101000a900473ffffffffffffffffffffffffffffffffffffffff1673ffffffffffffffffffffffffffffffffffffffff16141515610243576040517f08c379a00000000000000000000000000000000000000000000000000000000081526004018080602001828103825260138152602001807f53656e64657220556e617574686f72697a65640000000000000000000000000081525060200191505060405180910390fd5b60023073ffffffffffffffffffffffffffffffffffffffff1631600354600454838054600181600116156101000203166002900480601f0160208091040260200160405190810160405280929190818152602001828054600181600116156101000203166002900480156102f85780601f106102cd576101008083540402835291602001916102f8565b820191906000526020600020905b8154815290600101906020018083116102db57829003601f168201915b5050505050935094509450945094505090919293565b328073ffffffffffffffffffffffffffffffffffffffff166000809054906101000a900473ffffffffffffffffffffffffffffffffffffffff1673ffffffffffffffffffffffffffffffffffffffff161415156103d3576040517f08c379a00000000000000000000000000000000000000000000000000000000081526004018080602001828103825260138152602001807f53656e64657220556e617574686f72697a65640000000000000000000000000081525060200191505060405180910390fd5b50565b338073ffffffffffffffffffffffffffffffffffffffff166000809054906101000a900473ffffffffffffffffffffffffffffffffffffffff1673ffffffffffffffffffffffffffffffffffffffff1614151561049b576040517f08c379a00000000000000000000000000000000000000000000000000000000081526004018080602001828103825260138152602001807f53656e64657220556e617574686f72697a65640000000000000000000000000081525060200191505060405180910390fd5b5056fea165627a7a72305820e18af5f8046fb78459b49832809cbed7a699a0eedd1b2a1e914720d824a1e00700296080604052326000806101000a81548173ffffffffffffffffffffffffffffffffffffffff021916908373ffffffffffffffffffffffffffffffffffffffff1602179055504260015534801561005457600080fd5b506040516107673803806107678339810180604052606081101561007757600080fd5b81019080805164010000000081111561008f57600080fd5b828101905060208101848111156100a557600080fd5b81518560018202830111640100000000821117156100c257600080fd5b5050929190602001805190602001909291908051906020019092919050505082828282600290805190602001906100fa929190610114565b5081600381905550806004819055505050505050506101b9565b828054600181600116156101000203166002900490600052602060002090601f016020900481019282601f1061015557805160ff1916838001178555610183565b82800160010185558215610183579182015b82811115610182578251825591602001919060010190610167565b5b5090506101909190610194565b5090565b6101b691905b808211156101b257600081600090555060010161019a565b5090565b90565b61059f806101c86000396000f3fe608060405260043610610057576000357c0100000000000000000000000000000000000000000000000000000000900463ffffffff1680631b9e16ad1461005c5780632e1a7d4d14610101578063b78ba7c81461013c575b600080fd5b34801561006857600080fd5b50610071610153565b6040518080602001858152602001848152602001838152602001828103825286818151815260200191508051906020019080838360005b838110156100c35780820151818401526020810190506100a8565b50505050905090810190601f1680156100f05780820380516001836020036101000a031916815260200191505b509550505050505060405180910390f35b34801561010d57600080fd5b5061013a6004803603602081101561012457600080fd5b81019080803590602001909291905050506102ea565b005b34801561014857600080fd5b506101516104ab565b005b60606000806000328073ffffffffffffffffffffffffffffffffffffffff166000809054906101000a900473ffffffffffffffffffffffffffffffffffffffff1673ffffffffffffffffffffffffffffffffffffffff1614151561021f576040517f08c379a00000000000000000000000000000000000000000000000000000000081526004018080602001828103825260138152602001807f53656e64657220556e617574686f72697a65640000000000000000000000000081525060200191505060405180910390fd5b60023073ffffffffffffffffffffffffffffffffffffffff1631600354600454838054600181600116156101000203166002900480601f0160208091040260200160405190810160405280929190818152602001828054600181600116156101000203166002900480156102d45780601f106102a9576101008083540402835291602001916102d4565b820191906000526020600020905b8154815290600101906020018083116102b757829003601f168201915b5050505050935094509450945094505090919293565b328073ffffffffffffffffffffffffffffffffffffffff166000809054906101000a900473ffffffffffffffffffffffffffffffffffffffff1673ffffffffffffffffffffffffffffffffffffffff161415156103af576040517f08c379a00000000000000000000000000000000000000000000000000000000081526004018080602001828103825260138152602001807f53656e64657220556e617574686f72697a65640000000000000000000000000081525060200191505060405180910390fd5b81803073ffffffffffffffffffffffffffffffffffffffff163111151561043e576040517f08c379a00000000000000000000000000000000000000000000000000000000081526004018080602001828103825260108152602001807f4e6f7420656e6f7567682066756e64730000000000000000000000000000000081525060200191505060405180910390fd5b6000809054906101000a900473ffffffffffffffffffffffffffffffffffffffff1673ffffffffffffffffffffffffffffffffffffffff166108fc849081150290604051600060405180830381858888f193505050501580156104a5573d6000803e3d6000fd5b50505050565b328073ffffffffffffffffffffffffffffffffffffffff166000809054906101000a900473ffffffffffffffffffffffffffffffffffffffff1673ffffffffffffffffffffffffffffffffffffffff16141515610570576040517f08c379a00000000000000000000000000000000000000000000000000000000081526004018080602001828103825260138152602001807f53656e64657220556e617574686f72697a65640000000000000000000000000081525060200191505060405180910390fd5b5056fea165627a7a7230582043bc8b5541552e4dfd3594575904c70928bfcae00b8cfafe94d6fd4270ffbb020029a165627a7a72305820bdbd8161a03409dfce9a162a307edee9bb6308016778f37c152e7d42dc2953bd0029",
  "source": "/* solium-disable */\n\npragma solidity >=0.5.0;\n\nimport \"./Ownable.sol\";\nimport \"./RetirementAccount.sol\";\nimport \"./BaseAccount.sol\";\nimport \"./SavingsAccount.sol\";\n\ncontract AccountManager is Ownable {\n  struct AccountInfo {\n    address accountAddress;\n    string label;\n    uint index;\n    uint currentBalance;\n    uint targetBalance;\n    uint targetDate;\n  }\n\n  address payable[] accounts;\n  uint savingsAccountCount;\n  uint investmentCount = 0; // counter to keep track of the times an investment has taken place\n  uint lastRewardAccountIndex = 0;\n  uint[] lastInvestmentProposal;\n  uint fires;\n\n  function createRetirementAccount(uint _dateOfBirth, uint _targetBalance)\n    public\n    returns (address)\n  {\n    RetirementAccount newRetirementAccount = new RetirementAccount(\n      _dateOfBirth,\n      _targetBalance\n    );\n    \n    address payable pAddr = address(uint160(address(newRetirementAccount)));\n\n    accounts.push(pAddr);\n\n    return address(newRetirementAccount);\n  }\n\n  function createSavingsAccount(\n    string memory _label,\n    uint _targetBalance,\n    uint _targetDate\n  ) public returns (address) {\n    SavingsAccount savingsAccount = new SavingsAccount(\n      _label,\n      _targetBalance,\n      _targetDate\n    );\n    address payable pAddr = address(uint160(address(savingsAccount)));\n\n    accounts.push(pAddr);\n    savingsAccountCount++;\n    return address(savingsAccount);\n  }\n\n  function getAllSavingAccounts()\n    public\n    view\n    isOwner(tx.origin)\n    returns (address payable[] memory)\n  {\n    return accounts;\n  }\n\n  function getAccountInfo(uint index)\n    public\n    view\n    returns (\n    address _addr,\n    uint _index,\n    string memory _label,\n    uint _currentBalance,\n    uint _targetBalance,\n    uint _targetDate\n  )\n  {\n    BaseAccount acc = BaseAccount(accounts[index]);\n    (string memory label, uint currentBalance, uint targetBalance, uint targetDate) = acc.getAccountInfo(\n\n    );\n    return (accounts[index], index, label, currentBalance, targetBalance, targetDate);\n  }\n\n  function proposeInvestment(uint[] memory percentages)\n    public\n    returns (uint fireRewardAccountIndex)\n  {\n    lastInvestmentProposal = percentages;\n    if (!((investmentCount % 5) == 0)) {\n      return 9001;\n    } else {\n      lastRewardAccountIndex++;\n      BaseAccount acc = BaseAccount(accounts[lastRewardAccountIndex]);\n      (string memory label, uint currentBalance, uint targetBalance, uint targetDate) = acc.getAccountInfo(\n\n      );\n      if (keccak256(abi.encodePacked((label))) == keccak256(\n        abi.encodePacked((\"retirement\"))\n      )) {\n        lastRewardAccountIndex++;\n      }\n      return lastRewardAccountIndex;\n    }\n  }\n\n  function invest(uint[] memory percentages) public payable {\n    if (percentages[lastRewardAccountIndex] < lastInvestmentProposal[lastRewardAccountIndex]) {\n      for (uint8 i = 0; i < percentages.length; i++) {\n        BaseAccount acc = BaseAccount(accounts[lastRewardAccountIndex]);\n        (string memory label, uint currentBalance, uint targetBalance, uint targetDate) = acc.getAccountInfo();\n        if ((keccak256(abi.encodePacked((label))) == keccak256(abi.encodePacked((\"retirement\")))) && (percentages[i] == 0)) {\n          fires++;\n        }\n      }\n    }\n    for (uint i = 0; i < percentages.length; i++) {\n       accounts[i].transfer((msg.value / 100) * percentages[i]);\n    }\n  }\n\n  function getFireCount() \n    public \n    view\n    isOwner(tx.origin) \n    returns(uint _fires) \n    {\n      return fires;\n    }\n}\n",
  "sourcePath": "/Users/karimstekelenburg/Developer/Odyssey/chain/contracts/AccountManager.sol",
  "compiler": {
    "name": "solc",
    "version": "0.5.0+commit.1d4f565a.Emscripten.clang"
  },
  "schemaVersion": "3.0.6",
  "updatedAt": "2019-04-13T18:41:57.390Z",
  "devdoc": {
    "methods": {}
  },
  "userdoc": {
    "methods": {}
  }
}