{
  "contractName": "BaseAccount",
  "abi": [
    {
      "inputs": [
        {
          "name": "_label",
          "type": "string"
        },
        {
          "name": "_targetBalance",
          "type": "uint256"
        },
        {
          "name": "_targetDate",
          "type": "uint256"
        }
      ],
      "payable": false,
      "stateMutability": "nonpayable",
      "type": "constructor"
    },
    {
      "constant": true,
      "inputs": [],
      "name": "getAccountInfo",
      "outputs": [
        {
          "name": "",
          "type": "string"
        },
        {
          "name": "",
          "type": "uint256"
        },
        {
          "name": "",
          "type": "uint256"
        },
        {
          "name": "",
          "type": "uint256"
        }
      ],
      "payable": false,
      "stateMutability": "view",
      "type": "function"
    },
    {
      "constant": true,
      "inputs": [],
      "name": "getRule",
      "outputs": [],
      "payable": false,
      "stateMutability": "view",
      "type": "function"
    }
  ],
  "bytecode": "0x6080604052326000806101000a81548173ffffffffffffffffffffffffffffffffffffffff021916908373ffffffffffffffffffffffffffffffffffffffff1602179055504260015534801561005457600080fd5b5060405161055a38038061055a8339810180604052606081101561007757600080fd5b81019080805164010000000081111561008f57600080fd5b828101905060208101848111156100a557600080fd5b81518560018202830111640100000000821117156100c257600080fd5b5050929190602001805190602001909291908051906020019092919050505082600290805190602001906100f792919061010e565b5081600381905550806004819055505050506101b3565b828054600181600116156101000203166002900490600052602060002090601f016020900481019282601f1061014f57805160ff191683800117855561017d565b8280016001018555821561017d579182015b8281111561017c578251825591602001919060010190610161565b5b50905061018a919061018e565b5090565b6101b091905b808211156101ac576000816000905550600101610194565b5090565b90565b610398806101c26000396000f3fe60806040526004361061004c576000357c0100000000000000000000000000000000000000000000000000000000900463ffffffff1680631b9e16ad14610051578063b78ba7c8146100f6575b600080fd5b34801561005d57600080fd5b5061006661010d565b6040518080602001858152602001848152602001838152602001828103825286818151815260200191508051906020019080838360005b838110156100b857808201518184015260208101905061009d565b50505050905090810190601f1680156100e55780820380516001836020036101000a031916815260200191505b509550505050505060405180910390f35b34801561010257600080fd5b5061010b6102a4565b005b60606000806000328073ffffffffffffffffffffffffffffffffffffffff166000809054906101000a900473ffffffffffffffffffffffffffffffffffffffff1673ffffffffffffffffffffffffffffffffffffffff161415156101d9576040517f08c379a00000000000000000000000000000000000000000000000000000000081526004018080602001828103825260138152602001807f53656e64657220556e617574686f72697a65640000000000000000000000000081525060200191505060405180910390fd5b60023073ffffffffffffffffffffffffffffffffffffffff1631600354600454838054600181600116156101000203166002900480601f01602080910402602001604051908101604052809291908181526020018280546001816001161561010002031660029004801561028e5780601f106102635761010080835404028352916020019161028e565b820191906000526020600020905b81548152906001019060200180831161027157829003601f168201915b5050505050935094509450945094505090919293565b328073ffffffffffffffffffffffffffffffffffffffff166000809054906101000a900473ffffffffffffffffffffffffffffffffffffffff1673ffffffffffffffffffffffffffffffffffffffff16141515610369576040517f08c379a00000000000000000000000000000000000000000000000000000000081526004018080602001828103825260138152602001807f53656e64657220556e617574686f72697a65640000000000000000000000000081525060200191505060405180910390fd5b5056fea165627a7a72305820643e53b9ea770b1be1c8cd17bfa40eb75108f54c51541b152730147ca96ba1290029",
  "source": "/* solium-disable */\n\npragma solidity >=0.5.0;\nimport \"./Ownable.sol\";\n\ncontract BaseAccount is Ownable {\n  string internal label;\n  uint internal targetBalance;\n  uint internal targetDate;\n\n  constructor(string memory _label, uint _targetBalance, uint _targetDate)\n    public\n  {\n    label = _label;\n    targetBalance = _targetBalance;\n    targetDate = _targetDate;\n  }\n\n  function getAccountInfo()\n    public\n    view\n    isOwner(tx.origin)\n    returns (string memory, uint, uint, uint)\n  {\n    return (label, address(this).balance, targetBalance, targetDate);\n  }\n\n  function getRule() public view isOwner(tx.origin) {}\n}\n",
  "sourcePath": "/Users/karimstekelenburg/Developer/Odyssey/chain/contracts/BaseAccount.sol",
  "compiler": {
    "name": "solc",
    "version": "0.5.0+commit.1d4f565a.Emscripten.clang"
  },
  "schemaVersion": "3.0.6",
  "updatedAt": "2019-04-13T18:46:11.935Z",
  "devdoc": {
    "methods": {}
  },
  "userdoc": {
    "methods": {}
  }
}