{
  "contractName": "RetirementAccount",
  "abi": [
    {
      "constant": true,
      "inputs": [],
      "name": "getAccountInfo",
      "outputs": [
        {
          "name": "",
          "type": "string"
        },
        {
          "name": "",
          "type": "uint256"
        },
        {
          "name": "",
          "type": "uint256"
        },
        {
          "name": "",
          "type": "uint256"
        }
      ],
      "payable": false,
      "stateMutability": "view",
      "type": "function"
    },
    {
      "constant": true,
      "inputs": [],
      "name": "getRule",
      "outputs": [],
      "payable": false,
      "stateMutability": "view",
      "type": "function"
    },
    {
      "inputs": [
        {
          "name": "dateOfBirth",
          "type": "uint256"
        },
        {
          "name": "_targetBalance",
          "type": "uint256"
        }
      ],
      "payable": false,
      "stateMutability": "nonpayable",
      "type": "constructor"
    },
    {
      "constant": false,
      "inputs": [],
      "name": "invest",
      "outputs": [],
      "payable": true,
      "stateMutability": "payable",
      "type": "function"
    },
    {
      "constant": true,
      "inputs": [],
      "name": "getBalance",
      "outputs": [
        {
          "name": "",
          "type": "uint256"
        }
      ],
      "payable": false,
      "stateMutability": "view",
      "type": "function"
    }
  ],
  "bytecode": "0x6080604052326000806101000a81548173ffffffffffffffffffffffffffffffffffffffff021916908373ffffffffffffffffffffffffffffffffffffffff160217905550426001556301e1855860055534801561005c57600080fd5b506040516040806106808339810180604052604081101561007c57600080fd5b8101908080519060200190929190805190602001909291905050506040805190810160405280600a81526020017f7265746972656d656e740000000000000000000000000000000000000000000081525081836005540182600290805190602001906100e9929190610102565b50816003819055508060048190555050505050506101a7565b828054600181600116156101000203166002900490600052602060002090601f016020900481019282601f1061014357805160ff1916838001178555610171565b82800160010185558215610171579182015b82811115610170578251825591602001919060010190610155565b5b50905061017e9190610182565b5090565b6101a491905b808211156101a0576000816000905550600101610188565b5090565b90565b6104ca806101b66000396000f3fe608060405260043610610062576000357c0100000000000000000000000000000000000000000000000000000000900463ffffffff16806312065fe0146100675780631b9e16ad14610092578063b78ba7c814610137578063e8b5e51f1461014e575b600080fd5b34801561007357600080fd5b5061007c610158565b6040518082815260200191505060405180910390f35b34801561009e57600080fd5b506100a7610177565b6040518080602001858152602001848152602001838152602001828103825286818151815260200191508051906020019080838360005b838110156100f95780820151818401526020810190506100de565b50505050905090810190601f1680156101265780820380516001836020036101000a031916815260200191505b509550505050505060405180910390f35b34801561014357600080fd5b5061014c61030e565b005b6101566103d6565b005b60003073ffffffffffffffffffffffffffffffffffffffff1631905090565b60606000806000328073ffffffffffffffffffffffffffffffffffffffff166000809054906101000a900473ffffffffffffffffffffffffffffffffffffffff1673ffffffffffffffffffffffffffffffffffffffff16141515610243576040517f08c379a00000000000000000000000000000000000000000000000000000000081526004018080602001828103825260138152602001807f53656e64657220556e617574686f72697a65640000000000000000000000000081525060200191505060405180910390fd5b60023073ffffffffffffffffffffffffffffffffffffffff1631600354600454838054600181600116156101000203166002900480601f0160208091040260200160405190810160405280929190818152602001828054600181600116156101000203166002900480156102f85780601f106102cd576101008083540402835291602001916102f8565b820191906000526020600020905b8154815290600101906020018083116102db57829003601f168201915b5050505050935094509450945094505090919293565b328073ffffffffffffffffffffffffffffffffffffffff166000809054906101000a900473ffffffffffffffffffffffffffffffffffffffff1673ffffffffffffffffffffffffffffffffffffffff161415156103d3576040517f08c379a00000000000000000000000000000000000000000000000000000000081526004018080602001828103825260138152602001807f53656e64657220556e617574686f72697a65640000000000000000000000000081525060200191505060405180910390fd5b50565b338073ffffffffffffffffffffffffffffffffffffffff166000809054906101000a900473ffffffffffffffffffffffffffffffffffffffff1673ffffffffffffffffffffffffffffffffffffffff1614151561049b576040517f08c379a00000000000000000000000000000000000000000000000000000000081526004018080602001828103825260138152602001807f53656e64657220556e617574686f72697a65640000000000000000000000000081525060200191505060405180910390fd5b5056fea165627a7a72305820e18af5f8046fb78459b49832809cbed7a699a0eedd1b2a1e914720d824a1e0070029",
  "source": "/* solium-disable */\n\npragma solidity >=0.5.0;\nimport \"./BaseAccount.sol\";\n\ncontract RetirementAccount is BaseAccount {\n  uint private seventyYearsMs = 31556952;\n\n  modifier isRetired {\n    require(block.timestamp > targetDate, \"Unauthorized Access\");\n    _;\n  }\n\n  constructor(uint dateOfBirth, uint _targetBalance)\n    public\n    BaseAccount(\"retirement\", _targetBalance, seventyYearsMs + dateOfBirth)\n  {}\n\n  function invest() public payable isOwner(msg.sender) {\n    // nothing to do here\n  }\n\n  function getBalance() public view returns (uint) {\n    return address(this).balance;\n  }\n\n}\n",
  "sourcePath": "/Users/karimstekelenburg/Developer/Odyssey/chain/contracts/RetirementAccount.sol",
  "compiler": {
    "name": "solc",
    "version": "0.5.0+commit.1d4f565a.Emscripten.clang"
  },
  "schemaVersion": "3.0.6",
  "updatedAt": "2019-04-13T18:41:57.381Z",
  "devdoc": {
    "methods": {}
  },
  "userdoc": {
    "methods": {}
  }
}