{
  "contractName": "SavingsAccount",
  "abi": [
    {
      "constant": true,
      "inputs": [],
      "name": "getAccountInfo",
      "outputs": [
        {
          "name": "",
          "type": "string"
        },
        {
          "name": "",
          "type": "uint256"
        },
        {
          "name": "",
          "type": "uint256"
        },
        {
          "name": "",
          "type": "uint256"
        }
      ],
      "payable": false,
      "stateMutability": "view",
      "type": "function"
    },
    {
      "constant": true,
      "inputs": [],
      "name": "getRule",
      "outputs": [],
      "payable": false,
      "stateMutability": "view",
      "type": "function"
    },
    {
      "inputs": [
        {
          "name": "_label",
          "type": "string"
        },
        {
          "name": "_targetBalance",
          "type": "uint256"
        },
        {
          "name": "_targetDate",
          "type": "uint256"
        }
      ],
      "payable": false,
      "stateMutability": "nonpayable",
      "type": "constructor"
    },
    {
      "constant": false,
      "inputs": [
        {
          "name": "amount",
          "type": "uint256"
        }
      ],
      "name": "withdraw",
      "outputs": [],
      "payable": false,
      "stateMutability": "nonpayable",
      "type": "function"
    }
  ],
  "bytecode": "0x6080604052326000806101000a81548173ffffffffffffffffffffffffffffffffffffffff021916908373ffffffffffffffffffffffffffffffffffffffff1602179055504260015534801561005457600080fd5b506040516107673803806107678339810180604052606081101561007757600080fd5b81019080805164010000000081111561008f57600080fd5b828101905060208101848111156100a557600080fd5b81518560018202830111640100000000821117156100c257600080fd5b5050929190602001805190602001909291908051906020019092919050505082828282600290805190602001906100fa929190610114565b5081600381905550806004819055505050505050506101b9565b828054600181600116156101000203166002900490600052602060002090601f016020900481019282601f1061015557805160ff1916838001178555610183565b82800160010185558215610183579182015b82811115610182578251825591602001919060010190610167565b5b5090506101909190610194565b5090565b6101b691905b808211156101b257600081600090555060010161019a565b5090565b90565b61059f806101c86000396000f3fe608060405260043610610057576000357c0100000000000000000000000000000000000000000000000000000000900463ffffffff1680631b9e16ad1461005c5780632e1a7d4d14610101578063b78ba7c81461013c575b600080fd5b34801561006857600080fd5b50610071610153565b6040518080602001858152602001848152602001838152602001828103825286818151815260200191508051906020019080838360005b838110156100c35780820151818401526020810190506100a8565b50505050905090810190601f1680156100f05780820380516001836020036101000a031916815260200191505b509550505050505060405180910390f35b34801561010d57600080fd5b5061013a6004803603602081101561012457600080fd5b81019080803590602001909291905050506102ea565b005b34801561014857600080fd5b506101516104ab565b005b60606000806000328073ffffffffffffffffffffffffffffffffffffffff166000809054906101000a900473ffffffffffffffffffffffffffffffffffffffff1673ffffffffffffffffffffffffffffffffffffffff1614151561021f576040517f08c379a00000000000000000000000000000000000000000000000000000000081526004018080602001828103825260138152602001807f53656e64657220556e617574686f72697a65640000000000000000000000000081525060200191505060405180910390fd5b60023073ffffffffffffffffffffffffffffffffffffffff1631600354600454838054600181600116156101000203166002900480601f0160208091040260200160405190810160405280929190818152602001828054600181600116156101000203166002900480156102d45780601f106102a9576101008083540402835291602001916102d4565b820191906000526020600020905b8154815290600101906020018083116102b757829003601f168201915b5050505050935094509450945094505090919293565b328073ffffffffffffffffffffffffffffffffffffffff166000809054906101000a900473ffffffffffffffffffffffffffffffffffffffff1673ffffffffffffffffffffffffffffffffffffffff161415156103af576040517f08c379a00000000000000000000000000000000000000000000000000000000081526004018080602001828103825260138152602001807f53656e64657220556e617574686f72697a65640000000000000000000000000081525060200191505060405180910390fd5b81803073ffffffffffffffffffffffffffffffffffffffff163111151561043e576040517f08c379a00000000000000000000000000000000000000000000000000000000081526004018080602001828103825260108152602001807f4e6f7420656e6f7567682066756e64730000000000000000000000000000000081525060200191505060405180910390fd5b6000809054906101000a900473ffffffffffffffffffffffffffffffffffffffff1673ffffffffffffffffffffffffffffffffffffffff166108fc849081150290604051600060405180830381858888f193505050501580156104a5573d6000803e3d6000fd5b50505050565b328073ffffffffffffffffffffffffffffffffffffffff166000809054906101000a900473ffffffffffffffffffffffffffffffffffffffff1673ffffffffffffffffffffffffffffffffffffffff16141515610570576040517f08c379a00000000000000000000000000000000000000000000000000000000081526004018080602001828103825260138152602001807f53656e64657220556e617574686f72697a65640000000000000000000000000081525060200191505060405180910390fd5b5056fea165627a7a7230582043bc8b5541552e4dfd3594575904c70928bfcae00b8cfafe94d6fd4270ffbb020029",
  "source": "/* solium-disable */\n\npragma solidity >=0.5.0;\n\nimport \"./BaseAccount.sol\";\n\ncontract SavingsAccount is BaseAccount {\n  modifier hasEnoughEther(uint amount) {\n    require(address(this).balance > amount, \"Not enough funds\");\n    _;\n  }\n\n  constructor(string memory _label, uint _targetBalance, uint _targetDate)\n    public\n    BaseAccount(_label, _targetBalance, _targetDate)\n  {}\n\n  function withdraw(uint amount)\n    public\n    isOwner(tx.origin)\n    hasEnoughEther(amount)\n  {\n    owner.transfer(amount);\n  }\n}\n",
  "sourcePath": "/Users/karimstekelenburg/Developer/Odyssey/chain/contracts/SavingsAccount.sol",
  "compiler": {
    "name": "solc",
    "version": "0.5.0+commit.1d4f565a.Emscripten.clang"
  },
  "schemaVersion": "3.0.6",
  "updatedAt": "2019-04-13T18:41:57.380Z",
  "devdoc": {
    "methods": {}
  },
  "userdoc": {
    "methods": {}
  }
}