{
  "contractName": "StringUtils",
  "abi": [
    {
      "constant": true,
      "inputs": [
        {
          "name": "_a",
          "type": "string"
        },
        {
          "name": "_b",
          "type": "string"
        }
      ],
      "name": "compare",
      "outputs": [
        {
          "name": "",
          "type": "int256"
        }
      ],
      "payable": false,
      "stateMutability": "pure",
      "type": "function"
    },
    {
      "constant": true,
      "inputs": [
        {
          "name": "_a",
          "type": "string"
        },
        {
          "name": "_b",
          "type": "string"
        }
      ],
      "name": "equal",
      "outputs": [
        {
          "name": "",
          "type": "bool"
        }
      ],
      "payable": false,
      "stateMutability": "pure",
      "type": "function"
    },
    {
      "constant": true,
      "inputs": [
        {
          "name": "_haystack",
          "type": "string"
        },
        {
          "name": "_needle",
          "type": "string"
        }
      ],
      "name": "indexOf",
      "outputs": [
        {
          "name": "",
          "type": "int256"
        }
      ],
      "payable": false,
      "stateMutability": "pure",
      "type": "function"
    }
  ],
  "bytecode": "0x610ad8610030600b82828239805160001a6073146000811461002057610022565bfe5b5030600052607381538281f3fe730000000000000000000000000000000000000000301460806040526004361061006e576000357c0100000000000000000000000000000000000000000000000000000000900463ffffffff1680633a96fdd71461007357806346bdca9a146101d95780638a0807b714610343575b600080fd5b6101c36004803603604081101561008957600080fd5b81019080803590602001906401000000008111156100a657600080fd5b8201836020820111156100b857600080fd5b803590602001918460018302840111640100000000831117156100da57600080fd5b91908080601f016020809104026020016040519081016040528093929190818152602001838380828437600081840152601f19601f8201169050808301925050505050505091929192908035906020019064010000000081111561013d57600080fd5b82018360208201111561014f57600080fd5b8035906020019184600183028401116401000000008311171561017157600080fd5b91908080601f016020809104026020016040519081016040528093929190818152602001838380828437600081840152601f19601f8201169050808301925050505050505091929192905050506104a9565b6040518082815260200191505060405180910390f35b610329600480360360408110156101ef57600080fd5b810190808035906020019064010000000081111561020c57600080fd5b82018360208201111561021e57600080fd5b8035906020019184600183028401116401000000008311171561024057600080fd5b91908080601f016020809104026020016040519081016040528093929190818152602001838380828437600081840152601f19601f820116905080830192505050505050509192919290803590602001906401000000008111156102a357600080fd5b8201836020820111156102b557600080fd5b803590602001918460018302840111640100000000831117156102d757600080fd5b91908080601f016020809104026020016040519081016040528093929190818152602001838380828437600081840152601f19601f82011690508083019250505050505050919291929050505061076f565b604051808215151515815260200191505060405180910390f35b6104936004803603604081101561035957600080fd5b810190808035906020019064010000000081111561037657600080fd5b82018360208201111561038857600080fd5b803590602001918460018302840111640100000000831117156103aa57600080fd5b91908080601f016020809104026020016040519081016040528093929190818152602001838380828437600081840152601f19601f8201169050808301925050505050505091929192908035906020019064010000000081111561040d57600080fd5b82018360208201111561041f57600080fd5b8035906020019184600183028401116401000000008311171561044157600080fd5b91908080601f016020809104026020016040519081016040528093929190818152602001838380828437600081840152601f19601f820116905080830192505050505050509192919290505050610785565b6040518082815260200191505060405180910390f35b60006060839050606083905060008251905080825110156104c957815190505b60008090505b818110156107155782818151811015156104e557fe5b9060200101517f010000000000000000000000000000000000000000000000000000000000000090047f0100000000000000000000000000000000000000000000000000000000000000027effffffffffffffffffffffffffffffffffffffffffffffffffffffffffffff1916848281518110151561056057fe5b9060200101517f010000000000000000000000000000000000000000000000000000000000000090047f0100000000000000000000000000000000000000000000000000000000000000027effffffffffffffffffffffffffffffffffffffffffffffffffffffffffffff191610156105ff577fffffffffffffffffffffffffffffffffffffffffffffffffffffffffffffffff945050505050610769565b828181518110151561060d57fe5b9060200101517f010000000000000000000000000000000000000000000000000000000000000090047f0100000000000000000000000000000000000000000000000000000000000000027effffffffffffffffffffffffffffffffffffffffffffffffffffffffffffff1916848281518110151561068857fe5b9060200101517f010000000000000000000000000000000000000000000000000000000000000090047f0100000000000000000000000000000000000000000000000000000000000000027effffffffffffffffffffffffffffffffffffffffffffffffffffffffffffff19161115610708576001945050505050610769565b80806001019150506104cf565b5081518351101561074b577fffffffffffffffffffffffffffffffffffffffffffffffffffffffffffffffff9350505050610769565b8151835111156107615760019350505050610769565b600093505050505b92915050565b60008061077c84846104a9565b14905092915050565b6000606083905060608390506001825110806107a2575060018151105b806107ae575081518151115b156107dd577fffffffffffffffffffffffffffffffffffffffffffffffffffffffffffffffff92505050610aa6565b6fffffffffffffffffffffffffffffffff82511115610820577fffffffffffffffffffffffffffffffffffffffffffffffffffffffffffffffff92505050610aa6565b600080905060008090505b8351811015610a7e5782600081518110151561084357fe5b9060200101517f010000000000000000000000000000000000000000000000000000000000000090047f0100000000000000000000000000000000000000000000000000000000000000027effffffffffffffffffffffffffffffffffffffffffffffffffffffffffffff191684828151811015156108be57fe5b9060200101517f010000000000000000000000000000000000000000000000000000000000000090047f0100000000000000000000000000000000000000000000000000000000000000027effffffffffffffffffffffffffffffffffffffffffffffffffffffffffffff19161415610a7157600191505b82518210801561094857508351828201105b8015610a495750828281518110151561095d57fe5b9060200101517f010000000000000000000000000000000000000000000000000000000000000090047f0100000000000000000000000000000000000000000000000000000000000000027effffffffffffffffffffffffffffffffffffffffffffffffffffffffffffff1916848383018151811015156109da57fe5b9060200101517f010000000000000000000000000000000000000000000000000000000000000090047f0100000000000000000000000000000000000000000000000000000000000000027effffffffffffffffffffffffffffffffffffffffffffffffffffffffffffff1916145b15610a5b578180600101925050610936565b8251821415610a705780945050505050610aa6565b5b808060010191505061082b565b507fffffffffffffffffffffffffffffffffffffffffffffffffffffffffffffffff93505050505b9291505056fea165627a7a723058207ed4d2286daa1a5d32dc77c843120e3038dee5bfd1146e5c17b9c34b690015560029",
  "source": "pragma solidity >=0.5.0;\n\nlibrary StringUtils {\n  /// @dev Does a byte-by-byte lexicographical comparison of two strings.\n  /// @return a negative number if `_a` is smaller, zero if they are equal\n  /// and a positive numbe if `_b` is smaller.\n  function compare(string memory _a, string memory _b)\n    public\n    pure\n    returns (int)\n  {\n    bytes memory a = bytes(_a);\n    bytes memory b = bytes(_b);\n    uint minLength = a.length;\n    if (b.length < minLength) minLength = b.length;\n    //@todo unroll the loop into increments of 32 and do full 32 byte comparisons\n    for (uint i = 0; i < minLength; i++) if (a[i] < b[i]) return -1;\n    else if (a[i] > b[i]) return 1;\n    if (a.length < b.length) return -1;\n    else if (a.length > b.length) return 1;\n    else return 0;\n  }\n  /// @dev Compares two strings and returns true iff they are equal.\n  function equal(string memory _a, string memory _b)\n    public\n    pure\n    returns (bool)\n  {\n    return compare(_a, _b) == 0;\n  }\n  /// @dev Finds the index of the first occurrence of _needle in _haystack\n  function indexOf(string memory _haystack, string memory _needle)\n    public\n    pure\n    returns (int)\n  {\n    bytes memory h = bytes(_haystack);\n    bytes memory n = bytes(_needle);\n    if (h.length < 1 || n.length < 1 || (n.length > h.length)) return -1;\n    else if (h.length > (2 ** 128 - 1)) // since we have to be able to return -1 (if the char isn't found or input error), this function must return an \"int\" type with a max length of (2^128 - 1)\n    return -1;\n    else {\n      uint subindex = 0;\n      for (uint i = 0; i < h.length; i++) {\n        if (h[i] == n[0]) // found the first char of b\n        {\n          subindex = 1;\n          while (subindex < n.length && (i + subindex) < h.length && h[i + subindex] == n[subindex]) {\n            // search until the chars don't match or until we reach the end of a or b\n            subindex++;\n          }\n          if (subindex == n.length) return int(i);\n        }\n      }\n      return -1;\n    }\n  }\n}\n",
  "sourcePath": "/Users/karimstekelenburg/Developer/Odyssey/chain/contracts/StringUtils.sol",
  "compiler": {
    "name": "solc",
    "version": "0.5.0+commit.1d4f565a.Emscripten.clang"
  },
  "schemaVersion": "3.0.6",
  "updatedAt": "2019-04-13T18:41:57.394Z",
  "devdoc": {
    "methods": {
      "compare(string,string)": {
        "details": "Does a byte-by-byte lexicographical comparison of two strings.",
        "return": "a negative number if `_a` is smaller, zero if they are equal and a positive numbe if `_b` is smaller."
      },
      "equal(string,string)": {
        "details": "Compares two strings and returns true iff they are equal."
      },
      "indexOf(string,string)": {
        "details": "Finds the index of the first occurrence of _needle in _haystack"
      }
    }
  },
  "userdoc": {
    "methods": {}
  }
}